{"abi":[{"type":"constructor","inputs":[{"name":"defaultAdmin","type":"address","internalType":"address"}],"stateMutability":"nonpayable"},{"type":"function","name":"DEFAULT_ADMIN_ROLE","inputs":[],"outputs":[{"name":"","type":"bytes32","internalType":"bytes32"}],"stateMutability":"view"},{"type":"function","name":"approve","inputs":[{"name":"to","type":"address","internalType":"address"},{"name":"tokenId","type":"uint256","internalType":"uint256"}],"outputs":[],"stateMutability":"nonpayable"},{"type":"function","name":"balanceOf","inputs":[{"name":"owner","type":"address","internalType":"address"}],"outputs":[{"name":"","type":"uint256","internalType":"uint256"}],"stateMutability":"view"},{"type":"function","name":"burn","inputs":[{"name":"tokenId","type":"uint256","internalType":"uint256"}],"outputs":[],"stateMutability":"nonpayable"},{"type":"function","name":"getApproved","inputs":[{"name":"tokenId","type":"uint256","internalType":"uint256"}],"outputs":[{"name":"","type":"address","internalType":"address"}],"stateMutability":"view"},{"type":"function","name":"getRoleAdmin","inputs":[{"name":"role","type":"bytes32","internalType":"bytes32"}],"outputs":[{"name":"","type":"bytes32","internalType":"bytes32"}],"stateMutability":"view"},{"type":"function","name":"grantRole","inputs":[{"name":"role","type":"bytes32","internalType":"bytes32"},{"name":"account","type":"address","internalType":"address"}],"outputs":[],"stateMutability":"nonpayable"},{"type":"function","name":"hasRole","inputs":[{"name":"role","type":"bytes32","internalType":"bytes32"},{"name":"account","type":"address","internalType":"address"}],"outputs":[{"name":"","type":"bool","internalType":"bool"}],"stateMutability":"view"},{"type":"function","name":"isApprovedForAll","inputs":[{"name":"owner","type":"address","internalType":"address"},{"name":"operator","type":"address","internalType":"address"}],"outputs":[{"name":"","type":"bool","internalType":"bool"}],"stateMutability":"view"},{"type":"function","name":"multicall","inputs":[{"name":"data","type":"bytes[]","internalType":"bytes[]"}],"outputs":[{"name":"results","type":"bytes[]","internalType":"bytes[]"}],"stateMutability":"nonpayable"},{"type":"function","name":"name","inputs":[],"outputs":[{"name":"","type":"string","internalType":"string"}],"stateMutability":"view"},{"type":"function","name":"ownerOf","inputs":[{"name":"tokenId","type":"uint256","internalType":"uint256"}],"outputs":[{"name":"","type":"address","internalType":"address"}],"stateMutability":"view"},{"type":"function","name":"pause","inputs":[],"outputs":[],"stateMutability":"nonpayable"},{"type":"function","name":"paused","inputs":[],"outputs":[{"name":"","type":"bool","internalType":"bool"}],"stateMutability":"view"},{"type":"function","name":"renounceRole","inputs":[{"name":"role","type":"bytes32","internalType":"bytes32"},{"name":"callerConfirmation","type":"address","internalType":"address"}],"outputs":[],"stateMutability":"nonpayable"},{"type":"function","name":"revokeRole","inputs":[{"name":"role","type":"bytes32","internalType":"bytes32"},{"name":"account","type":"address","internalType":"address"}],"outputs":[],"stateMutability":"nonpayable"},{"type":"function","name":"safeMint","inputs":[{"name":"to","type":"address","internalType":"address"},{"name":"uri","type":"string","internalType":"string"}],"outputs":[],"stateMutability":"nonpayable"},{"type":"function","name":"safeTransferFrom","inputs":[{"name":"from","type":"address","internalType":"address"},{"name":"to","type":"address","internalType":"address"},{"name":"tokenId","type":"uint256","internalType":"uint256"}],"outputs":[],"stateMutability":"nonpayable"},{"type":"function","name":"safeTransferFrom","inputs":[{"name":"from","type":"address","internalType":"address"},{"name":"to","type":"address","internalType":"address"},{"name":"tokenId","type":"uint256","internalType":"uint256"},{"name":"data","type":"bytes","internalType":"bytes"}],"outputs":[],"stateMutability":"nonpayable"},{"type":"function","name":"setApprovalForAll","inputs":[{"name":"operator","type":"address","internalType":"address"},{"name":"approved","type":"bool","internalType":"bool"}],"outputs":[],"stateMutability":"nonpayable"},{"type":"function","name":"setBaseURI","inputs":[{"name":"newURI","type":"string","internalType":"string"}],"outputs":[],"stateMutability":"nonpayable"},{"type":"function","name":"setTokenURI","inputs":[{"name":"tokenId","type":"uint256","internalType":"uint256"},{"name":"newTokenURI","type":"string","internalType":"string"}],"outputs":[],"stateMutability":"nonpayable"},{"type":"function","name":"supportsInterface","inputs":[{"name":"interfaceId","type":"bytes4","internalType":"bytes4"}],"outputs":[{"name":"","type":"bool","internalType":"bool"}],"stateMutability":"view"},{"type":"function","name":"symbol","inputs":[],"outputs":[{"name":"","type":"string","internalType":"string"}],"stateMutability":"view"},{"type":"function","name":"tokenByIndex","inputs":[{"name":"index","type":"uint256","internalType":"uint256"}],"outputs":[{"name":"","type":"uint256","internalType":"uint256"}],"stateMutability":"view"},{"type":"function","name":"tokenOfOwnerByIndex","inputs":[{"name":"owner","type":"address","internalType":"address"},{"name":"index","type":"uint256","internalType":"uint256"}],"outputs":[{"name":"","type":"uint256","internalType":"uint256"}],"stateMutability":"view"},{"type":"function","name":"tokenURI","inputs":[{"name":"tokenId","type":"uint256","internalType":"uint256"}],"outputs":[{"name":"","type":"string","internalType":"string"}],"stateMutability":"view"},{"type":"function","name":"totalSupply","inputs":[],"outputs":[{"name":"","type":"uint256","internalType":"uint256"}],"stateMutability":"view"},{"type":"function","name":"transferFrom","inputs":[{"name":"from","type":"address","internalType":"address"},{"name":"to","type":"address","internalType":"address"},{"name":"tokenId","type":"uint256","internalType":"uint256"}],"outputs":[],"stateMutability":"nonpayable"},{"type":"function","name":"unpause","inputs":[],"outputs":[],"stateMutability":"nonpayable"},{"type":"event","name":"Approval","inputs":[{"name":"owner","type":"address","indexed":true,"internalType":"address"},{"name":"approved","type":"address","indexed":true,"internalType":"address"},{"name":"tokenId","type":"uint256","indexed":true,"internalType":"uint256"}],"anonymous":false},{"type":"event","name":"ApprovalForAll","inputs":[{"name":"owner","type":"address","indexed":true,"internalType":"address"},{"name":"operator","type":"address","indexed":true,"internalType":"address"},{"name":"approved","type":"bool","indexed":false,"internalType":"bool"}],"anonymous":false},{"type":"event","name":"BatchMetadataUpdate","inputs":[{"name":"_fromTokenId","type":"uint256","indexed":false,"internalType":"uint256"},{"name":"_toTokenId","type":"uint256","indexed":false,"internalType":"uint256"}],"anonymous":false},{"type":"event","name":"MetadataUpdate","inputs":[{"name":"_tokenId","type":"uint256","indexed":false,"internalType":"uint256"}],"anonymous":false},{"type":"event","name":"Paused","inputs":[{"name":"account","type":"address","indexed":false,"internalType":"address"}],"anonymous":false},{"type":"event","name":"RoleAdminChanged","inputs":[{"name":"role","type":"bytes32","indexed":true,"internalType":"bytes32"},{"name":"previousAdminRole","type":"bytes32","indexed":true,"internalType":"bytes32"},{"name":"newAdminRole","type":"bytes32","indexed":true,"internalType":"bytes32"}],"anonymous":false},{"type":"event","name":"RoleGranted","inputs":[{"name":"role","type":"bytes32","indexed":true,"internalType":"bytes32"},{"name":"account","type":"address","indexed":true,"internalType":"address"},{"name":"sender","type":"address","indexed":true,"internalType":"address"}],"anonymous":false},{"type":"event","name":"RoleRevoked","inputs":[{"name":"role","type":"bytes32","indexed":true,"internalType":"bytes32"},{"name":"account","type":"address","indexed":true,"internalType":"address"},{"name":"sender","type":"address","indexed":true,"internalType":"address"}],"anonymous":false},{"type":"event","name":"Transfer","inputs":[{"name":"from","type":"address","indexed":true,"internalType":"address"},{"name":"to","type":"address","indexed":true,"internalType":"address"},{"name":"tokenId","type":"uint256","indexed":true,"internalType":"uint256"}],"anonymous":false},{"type":"event","name":"Unpaused","inputs":[{"name":"account","type":"address","indexed":false,"internalType":"address"}],"anonymous":false},{"type":"error","name":"AccessControlBadConfirmation","inputs":[]},{"type":"error","name":"AccessControlUnauthorizedAccount","inputs":[{"name":"account","type":"address","internalType":"address"},{"name":"neededRole","type":"bytes32","internalType":"bytes32"}]},{"type":"error","name":"AddressEmptyCode","inputs":[{"name":"target","type":"address","internalType":"address"}]},{"type":"error","name":"ERC721EnumerableForbiddenBatchMint","inputs":[]},{"type":"error","name":"ERC721IncorrectOwner","inputs":[{"name":"sender","type":"address","internalType":"address"},{"name":"tokenId","type":"uint256","internalType":"uint256"},{"name":"owner","type":"address","internalType":"address"}]},{"type":"error","name":"ERC721InsufficientApproval","inputs":[{"name":"operator","type":"address","internalType":"address"},{"name":"tokenId","type":"uint256","internalType":"uint256"}]},{"type":"error","name":"ERC721InvalidApprover","inputs":[{"name":"approver","type":"address","internalType":"address"}]},{"type":"error","name":"ERC721InvalidOperator","inputs":[{"name":"operator","type":"address","internalType":"address"}]},{"type":"error","name":"ERC721InvalidOwner","inputs":[{"name":"owner","type":"address","internalType":"address"}]},{"type":"error","name":"ERC721InvalidReceiver","inputs":[{"name":"receiver","type":"address","internalType":"address"}]},{"type":"error","name":"ERC721InvalidSender","inputs":[{"name":"sender","type":"address","internalType":"address"}]},{"type":"error","name":"ERC721NonexistentToken","inputs":[{"name":"tokenId","type":"uint256","internalType":"uint256"}]},{"type":"error","name":"ERC721OutOfBoundsIndex","inputs":[{"name":"owner","type":"address","internalType":"address"},{"name":"index","type":"uint256","internalType":"uint256"}]},{"type":"error","name":"EnforcedPause","inputs":[]},{"type":"error","name":"ExpectedPause","inputs":[]},{"type":"error","name":"FailedInnerCall","inputs":[]}],"bytecode":{"object":"0x60a060405260006080908152600e906200001a9082620002e1565b503480156200002857600080fd5b5060405162002533380380620025338339810160408190526200004b91620003ad565b60405180604001604052806004815260200163131bdbdd60e21b815250604051806040016040528060048152602001631313d3d560e21b8152508160009081620000969190620002e1565b506001620000a58282620002e1565b5050600b805460ff1916905550620000bf60008262000187565b5062000116604051602001620000f3906020808252600a908201526927232a2fa820aaa9a2a960b11b604082015260600190565b60405160208183030381529060405280519060200120826200018760201b60201c565b506200014a604051602001620000f3906020808252600a908201526927232a2fa6a4a72a22a960b11b604082015260600190565b506200017f604051602001620000f3906020808252600b908201526a27232a2fa6a0a720a3a2a960a91b604082015260600190565b5050620003df565b6000828152600c602090815260408083206001600160a01b038516845290915281205460ff1662000230576000838152600c602090815260408083206001600160a01b03861684529091529020805460ff19166001179055620001e73390565b6001600160a01b0316826001600160a01b0316847f2f8788117e7eff1d82e926ec794901d17c78024a50270940304540a733656f0d60405160405180910390a450600162000234565b5060005b92915050565b634e487b7160e01b600052604160045260246000fd5b600181811c908216806200026557607f821691505b6020821081036200028657634e487b7160e01b600052602260045260246000fd5b50919050565b601f821115620002dc576000816000526020600020601f850160051c81016020861015620002b75750805b601f850160051c820191505b81811015620002d857828155600101620002c3565b5050505b505050565b81516001600160401b03811115620002fd57620002fd6200023a565b62000315816200030e845462000250565b846200028c565b602080601f8311600181146200034d5760008415620003345750858301515b600019600386901b1c1916600185901b178555620002d8565b600085815260208120601f198616915b828110156200037e578886015182559484019460019091019084016200035d565b50858210156200039d5787850151600019600388901b60f8161c191681555b5050505050600190811b01905550565b600060208284031215620003c057600080fd5b81516001600160a01b0381168114620003d857600080fd5b9392505050565b61214480620003ef6000396000f3fe608060405234801561001057600080fd5b50600436106101da5760003560e01c806355f804b311610104578063a217fddf116100a2578063c87b56dd11610071578063c87b56dd146103e6578063d204c45e146103f9578063d547741f1461040c578063e985e9c51461041f57600080fd5b8063a217fddf14610398578063a22cb465146103a0578063ac9650d8146103b3578063b88d4fde146103d357600080fd5b806370a08231116100de57806370a08231146103625780638456cb591461037557806391d148541461037d57806395d89b411461039057600080fd5b806355f804b3146103315780635c975abb146103445780636352211e1461034f57600080fd5b8063248a9ca31161017c5780633f4ba83a1161014b5780633f4ba83a146102f057806342842e0e146102f857806342966c681461030b5780634f6ccce71461031e57600080fd5b8063248a9ca3146102945780632f2ff15d146102b75780632f745c59146102ca57806336568abe146102dd57600080fd5b8063095ea7b3116101b8578063095ea7b314610247578063162094c41461025c57806318160ddd1461026f57806323b872dd1461028157600080fd5b806301ffc9a7146101df57806306fdde0314610207578063081812fc1461021c575b600080fd5b6101f26101ed3660046119bf565b610432565b60405190151581526020015b60405180910390f35b61020f610443565b6040516101fe9190611a2c565b61022f61022a366004611a3f565b6104d5565b6040516001600160a01b0390911681526020016101fe565b61025a610255366004611a74565b6104fe565b005b61025a61026a366004611b4a565b61050d565b6008545b6040519081526020016101fe565b61025a61028f366004611b91565b61056a565b6102736102a2366004611a3f565b6000908152600c602052604090206001015490565b61025a6102c5366004611bcd565b6105fa565b6102736102d8366004611a74565b61061f565b61025a6102eb366004611bcd565b610684565b61025a6106b7565b61025a610306366004611b91565b61070f565b61025a610319366004611a3f565b61072a565b61027361032c366004611a3f565b610736565b61025a61033f366004611bf9565b61078f565b600b5460ff166101f2565b61022f61035d366004611a3f565b6107e9565b610273610370366004611c2e565b6107f4565b61025a61083c565b6101f261038b366004611bcd565b610891565b61020f6108bc565b610273600081565b61025a6103ae366004611c49565b6108cb565b6103c66103c1366004611c85565b6108d6565b6040516101fe9190611cfa565b61025a6103e1366004611d5e565b6109be565b61020f6103f4366004611a3f565b6109d5565b61025a610407366004611dda565b6109e0565b61025a61041a366004611bcd565b610a58565b6101f261042d366004611e12565b610a7d565b600061043d82610aab565b92915050565b60606000805461045290611e3c565b80601f016020809104026020016040519081016040528092919081815260200182805461047e90611e3c565b80156104cb5780601f106104a0576101008083540402835291602001916104cb565b820191906000526020600020905b8154815290600101906020018083116104ae57829003601f168201915b5050505050905090565b60006104e082610ad0565b506000828152600460205260409020546001600160a01b031661043d565b610509828233610b09565b5050565b60405160200161053c906020808252600b908201526a27232a2fa6a0a720a3a2a960a91b604082015260600190565b6040516020818303038152906040528051906020012061055b81610b16565b6105658383610b20565b505050565b6001600160a01b03821661059957604051633250574960e11b8152600060048201526024015b60405180910390fd5b60006105a6838333610b70565b9050836001600160a01b0316816001600160a01b0316146105f4576040516364283d7b60e01b81526001600160a01b0380861660048301526024820184905282166044820152606401610590565b50505050565b6000828152600c602052604090206001015461061581610b16565b6105f48383610b87565b600061062a836107f4565b821061065b5760405163295f44f760e21b81526001600160a01b038416600482015260248101839052604401610590565b506001600160a01b03919091166000908152600660209081526040808320938352929052205490565b6001600160a01b03811633146106ad5760405163334bd91960e11b815260040160405180910390fd5b6105658282610c1b565b6040516020016106e5906020808252600a908201526927232a2fa820aaa9a2a960b11b604082015260600190565b6040516020818303038152906040528051906020012061070481610b16565b61070c610c88565b50565b610565838383604051806020016040528060008152506109be565b61050960008233610b70565b600061074160085490565b821061076a5760405163295f44f760e21b81526000600482015260248101839052604401610590565b6008828154811061077d5761077d611e76565b90600052602060002001549050919050565b6040516020016107be906020808252600b908201526a27232a2fa6a0a720a3a2a960a91b604082015260600190565b604051602081830303815290604052805190602001206107dd81610b16565b600e6105658382611edc565b600061043d82610ad0565b60006001600160a01b038216610820576040516322718ad960e21b815260006004820152602401610590565b506001600160a01b031660009081526003602052604090205490565b60405160200161086a906020808252600a908201526927232a2fa820aaa9a2a960b11b604082015260600190565b6040516020818303038152906040528051906020012061088981610b16565b61070c610cda565b6000918252600c602090815260408084206001600160a01b0393909316845291905290205460ff1690565b60606001805461045290611e3c565b610509338383610d17565b6040805160008152602081019091526060908267ffffffffffffffff81111561090157610901611a9e565b60405190808252806020026020018201604052801561093457816020015b606081526020019060019003908161091f5790505b50915060005b838110156109b6576109913086868481811061095857610958611e76565b905060200281019061096a9190611fc5565b8560405160200161097d93929190612013565b604051602081830303815290604052610db6565b8382815181106109a3576109a3611e76565b602090810291909101015260010161093a565b505092915050565b6109c984848461056a565b6105f484848484610e2c565b606061043d82610f55565b604051602001610a0e906020808252600a908201526927232a2fa6a4a72a22a960b11b604082015260600190565b60405160208183030381529060405280519060200120610a2d81610b16565b600d805460009182610a3e8361203a565b919050559050610a4e8482611059565b6105f48184610b20565b6000828152600c6020526040902060010154610a7381610b16565b6105f48383610c1b565b6001600160a01b03918216600090815260056020908152604080832093909416825291909152205460ff1690565b60006001600160e01b03198216637965db0b60e01b148061043d575061043d82611073565b6000818152600260205260408120546001600160a01b03168061043d57604051637e27328960e01b815260048101849052602401610590565b6105658383836001611098565b61070c813361119e565b6000828152600a60205260409020610b388282611edc565b506040518281527ff8e1a15aba9398e019f0b49df1a4fde98ee17ae345cb5f6b5e2c27f5033e8ce79060200160405180910390a15050565b6000610b7d8484846111d7565b90505b9392505050565b6000610b938383610891565b610c13576000838152600c602090815260408083206001600160a01b03861684529091529020805460ff19166001179055610bcb3390565b6001600160a01b0316826001600160a01b0316847f2f8788117e7eff1d82e926ec794901d17c78024a50270940304540a733656f0d60405160405180910390a450600161043d565b50600061043d565b6000610c278383610891565b15610c13576000838152600c602090815260408083206001600160a01b0386168085529252808320805460ff1916905551339286917ff6391f5c32d9c69d2a47ea670b442974b53935d1edc7fd64eb21e047a839171b9190a450600161043d565b610c906111ec565b600b805460ff191690557f5db9ee0a495bf2e6ff9c91a7834c1ba4fdd244a5e8aa4e537bd38aeae4b073aa335b6040516001600160a01b03909116815260200160405180910390a1565b610ce2611211565b600b805460ff191660011790557f62e78cea01bee320cd4e420270b5ea74000d11b0c9f74754ebdbfc544b05a258610cbd3390565b6001600160a01b038216610d4957604051630b61174360e31b81526001600160a01b0383166004820152602401610590565b6001600160a01b03838116600081815260056020908152604080832094871680845294825291829020805460ff191686151590811790915591519182527f17307eab39ab6107e8899845ad3d59bd9653f200f220920489ca2b5937696c31910160405180910390a3505050565b6060600080846001600160a01b031684604051610dd39190612053565b600060405180830381855af49150503d8060008114610e0e576040519150601f19603f3d011682016040523d82523d6000602084013e610e13565b606091505b5091509150610e23858383611235565b95945050505050565b6001600160a01b0383163b156105f457604051630a85bd0160e11b81526001600160a01b0384169063150b7a0290610e6e90339088908790879060040161206f565b6020604051808303816000875af1925050508015610ea9575060408051601f3d908101601f19168201909252610ea6918101906120ac565b60015b610f12573d808015610ed7576040519150601f19603f3d011682016040523d82523d6000602084013e610edc565b606091505b508051600003610f0a57604051633250574960e11b81526001600160a01b0385166004820152602401610590565b805181602001fd5b6001600160e01b03198116630a85bd0160e11b14610f4e57604051633250574960e11b81526001600160a01b0385166004820152602401610590565b5050505050565b6060610f6082610ad0565b506000828152600a602052604081208054610f7a90611e3c565b80601f0160208091040260200160405190810160405280929190818152602001828054610fa690611e3c565b8015610ff35780601f10610fc857610100808354040283529160200191610ff3565b820191906000526020600020905b815481529060010190602001808311610fd657829003601f168201915b505050505090506000611004611291565b90508051600003611016575092915050565b8151156110485780826040516020016110309291906120c9565b60405160208183030381529060405292505050919050565b611051846112a0565b949350505050565b610509828260405180602001604052806000815250611307565b60006001600160e01b03198216632483248360e11b148061043d575061043d8261131e565b80806110ac57506001600160a01b03821615155b1561116e5760006110bc84610ad0565b90506001600160a01b038316158015906110e85750826001600160a01b0316816001600160a01b031614155b80156110fb57506110f98184610a7d565b155b156111245760405163a9fbf51f60e01b81526001600160a01b0384166004820152602401610590565b811561116c5783856001600160a01b0316826001600160a01b03167f8c5be1e5ebec7d5bd14f71427d1e84f3dd0314c0f7b2291e5b200ac8c7c3b92560405160405180910390a45b505b5050600090815260046020526040902080546001600160a01b0319166001600160a01b0392909216919091179055565b6111a88282610891565b6105095760405163e2517d3f60e01b81526001600160a01b038216600482015260248101839052604401610590565b60006111e1611211565b610b7d848484611343565b600b5460ff1661120f57604051638dfc202b60e01b815260040160405180910390fd5b565b600b5460ff161561120f5760405163d93c066560e01b815260040160405180910390fd5b60608261124a5761124582611410565b610b80565b815115801561126157506001600160a01b0384163b155b1561128a57604051639996b31560e01b81526001600160a01b0385166004820152602401610590565b5080610b80565b6060600e805461045290611e3c565b60606112ab82610ad0565b5060006112b6611291565b905060008151116112d65760405180602001604052806000815250610b80565b806112e084611439565b6040516020016112f19291906120c9565b6040516020818303038152906040529392505050565b61131183836114cc565b6105656000848484610e2c565b60006001600160e01b0319821663780e9d6360e01b148061043d575061043d82611531565b600080611351858585611581565b90506001600160a01b0381166113ae576113a984600880546000838152600960205260408120829055600182018355919091527ff3f7a9fe364faab93b216da50a3214154f22a0a2b415b23a84c8169e8b636ee30155565b6113d1565b846001600160a01b0316816001600160a01b0316146113d1576113d1818561167a565b6001600160a01b0385166113ed576113e88461170b565b610b7d565b846001600160a01b0316816001600160a01b031614610b7d57610b7d85856117ba565b8051156114205780518082602001fd5b604051630a12f52160e11b815260040160405180910390fd5b606060006114468361180a565b600101905060008167ffffffffffffffff81111561146657611466611a9e565b6040519080825280601f01601f191660200182016040528015611490576020820181803683370190505b5090508181016020015b600019016f181899199a1a9b1b9c1cb0b131b232b360811b600a86061a8153600a850494508461149a57509392505050565b6001600160a01b0382166114f657604051633250574960e11b815260006004820152602401610590565b600061150483836000610b70565b90506001600160a01b03811615610565576040516339e3563760e11b815260006004820152602401610590565b60006001600160e01b031982166380ac58cd60e01b148061156257506001600160e01b03198216635b5e139f60e01b145b8061043d57506301ffc9a760e01b6001600160e01b031983161461043d565b6000828152600260205260408120546001600160a01b03908116908316156115ae576115ae8184866118e2565b6001600160a01b038116156115ec576115cb600085600080611098565b6001600160a01b038116600090815260036020526040902080546000190190555b6001600160a01b0385161561161b576001600160a01b0385166000908152600360205260409020805460010190555b60008481526002602052604080822080546001600160a01b0319166001600160a01b0389811691821790925591518793918516917fddf252ad1be2c89b69c2b068fc378daa952ba7f163c4a11628f55a4df523b3ef91a4949350505050565b6000611685836107f4565b6000838152600760205260409020549091508082146116d8576001600160a01b03841660009081526006602090815260408083208584528252808320548484528184208190558352600790915290208190555b5060009182526007602090815260408084208490556001600160a01b039094168352600681528383209183525290812055565b60085460009061171d90600190611fb2565b6000838152600960205260408120546008805493945090928490811061174557611745611e76565b90600052602060002001549050806008838154811061176657611766611e76565b600091825260208083209091019290925582815260099091526040808220849055858252812055600880548061179e5761179e6120f8565b6001900381819060005260206000200160009055905550505050565b600060016117c7846107f4565b6117d19190611fb2565b6001600160a01b039093166000908152600660209081526040808320868452825280832085905593825260079052919091209190915550565b60008072184f03e93ff9f4daa797ed6e38ed64bf6a1f0160401b83106118495772184f03e93ff9f4daa797ed6e38ed64bf6a1f0160401b830492506040015b6d04ee2d6d415b85acef81000000008310611875576d04ee2d6d415b85acef8100000000830492506020015b662386f26fc10000831061189357662386f26fc10000830492506010015b6305f5e10083106118ab576305f5e100830492506008015b61271083106118bf57612710830492506004015b606483106118d1576064830492506002015b600a831061043d5760010192915050565b6118ed838383611946565b610565576001600160a01b03831661191b57604051637e27328960e01b815260048101829052602401610590565b60405163177e802f60e01b81526001600160a01b038316600482015260248101829052604401610590565b60006001600160a01b03831615801590610b7d5750826001600160a01b0316846001600160a01b0316148061198057506119808484610a7d565b80610b7d5750506000908152600460205260409020546001600160a01b03908116911614919050565b6001600160e01b03198116811461070c57600080fd5b6000602082840312156119d157600080fd5b8135610b80816119a9565b60005b838110156119f75781810151838201526020016119df565b50506000910152565b60008151808452611a188160208601602086016119dc565b601f01601f19169290920160200192915050565b602081526000610b806020830184611a00565b600060208284031215611a5157600080fd5b5035919050565b80356001600160a01b0381168114611a6f57600080fd5b919050565b60008060408385031215611a8757600080fd5b611a9083611a58565b946020939093013593505050565b634e487b7160e01b600052604160045260246000fd5b600067ffffffffffffffff80841115611acf57611acf611a9e565b604051601f8501601f19908116603f01168101908282118183101715611af757611af7611a9e565b81604052809350858152868686011115611b1057600080fd5b858560208301376000602087830101525050509392505050565b600082601f830112611b3b57600080fd5b610b8083833560208501611ab4565b60008060408385031215611b5d57600080fd5b82359150602083013567ffffffffffffffff811115611b7b57600080fd5b611b8785828601611b2a565b9150509250929050565b600080600060608486031215611ba657600080fd5b611baf84611a58565b9250611bbd60208501611a58565b9150604084013590509250925092565b60008060408385031215611be057600080fd5b82359150611bf060208401611a58565b90509250929050565b600060208284031215611c0b57600080fd5b813567ffffffffffffffff811115611c2257600080fd5b61105184828501611b2a565b600060208284031215611c4057600080fd5b610b8082611a58565b60008060408385031215611c5c57600080fd5b611c6583611a58565b915060208301358015158114611c7a57600080fd5b809150509250929050565b60008060208385031215611c9857600080fd5b823567ffffffffffffffff80821115611cb057600080fd5b818501915085601f830112611cc457600080fd5b813581811115611cd357600080fd5b8660208260051b8501011115611ce857600080fd5b60209290920196919550909350505050565b600060208083016020845280855180835260408601915060408160051b87010192506020870160005b82811015611d5157603f19888603018452611d3f858351611a00565b94509285019290850190600101611d23565b5092979650505050505050565b60008060008060808587031215611d7457600080fd5b611d7d85611a58565b9350611d8b60208601611a58565b925060408501359150606085013567ffffffffffffffff811115611dae57600080fd5b8501601f81018713611dbf57600080fd5b611dce87823560208401611ab4565b91505092959194509250565b60008060408385031215611ded57600080fd5b611df683611a58565b9150602083013567ffffffffffffffff811115611b7b57600080fd5b60008060408385031215611e2557600080fd5b611e2e83611a58565b9150611bf060208401611a58565b600181811c90821680611e5057607f821691505b602082108103611e7057634e487b7160e01b600052602260045260246000fd5b50919050565b634e487b7160e01b600052603260045260246000fd5b601f821115610565576000816000526020600020601f850160051c81016020861015611eb55750805b601f850160051c820191505b81811015611ed457828155600101611ec1565b505050505050565b815167ffffffffffffffff811115611ef657611ef6611a9e565b611f0a81611f048454611e3c565b84611e8c565b602080601f831160018114611f3f5760008415611f275750858301515b600019600386901b1c1916600185901b178555611ed4565b600085815260208120601f198616915b82811015611f6e57888601518255948401946001909101908401611f4f565b5085821015611f8c5787850151600019600388901b60f8161c191681555b5050505050600190811b01905550565b634e487b7160e01b600052601160045260246000fd5b8181038181111561043d5761043d611f9c565b6000808335601e19843603018112611fdc57600080fd5b83018035915067ffffffffffffffff821115611ff757600080fd5b60200191503681900382131561200c57600080fd5b9250929050565b8284823760008382016000815283516120308183602088016119dc565b0195945050505050565b60006001820161204c5761204c611f9c565b5060010190565b600082516120658184602087016119dc565b9190910192915050565b6001600160a01b03858116825284166020820152604081018390526080606082018190526000906120a290830184611a00565b9695505050505050565b6000602082840312156120be57600080fd5b8151610b80816119a9565b600083516120db8184602088016119dc565b8351908301906120ef8183602088016119dc565b01949350505050565b634e487b7160e01b600052603160045260246000fdfea264697066735822122046e325461d9bffdc6ea580c7ff51f0cd1fbb1d77fc8f3cf3b922acc80200a6b564736f6c63430008160033","linkReferences":{}},"methodIdentifiers":{"DEFAULT_ADMIN_ROLE()":"a217fddf","approve(address,uint256)":"095ea7b3","balanceOf(address)":"70a08231","burn(uint256)":"42966c68","getApproved(uint256)":"081812fc","getRoleAdmin(bytes32)":"248a9ca3","grantRole(bytes32,address)":"2f2ff15d","hasRole(bytes32,address)":"91d14854","isApprovedForAll(address,address)":"e985e9c5","multicall(bytes[])":"ac9650d8","name()":"06fdde03","ownerOf(uint256)":"6352211e","pause()":"8456cb59","paused()":"5c975abb","renounceRole(bytes32,address)":"36568abe","revokeRole(bytes32,address)":"d547741f","safeMint(address,string)":"d204c45e","safeTransferFrom(address,address,uint256)":"42842e0e","safeTransferFrom(address,address,uint256,bytes)":"b88d4fde","setApprovalForAll(address,bool)":"a22cb465","setBaseURI(string)":"55f804b3","setTokenURI(uint256,string)":"162094c4","supportsInterface(bytes4)":"01ffc9a7","symbol()":"95d89b41","tokenByIndex(uint256)":"4f6ccce7","tokenOfOwnerByIndex(address,uint256)":"2f745c59","tokenURI(uint256)":"c87b56dd","totalSupply()":"18160ddd","transferFrom(address,address,uint256)":"23b872dd","unpause()":"3f4ba83a"},"id":0}