{"abi":[{"type":"function","name":"NFT_MANAGER","inputs":[],"outputs":[{"name":"","type":"bytes32","internalType":"bytes32"}],"stateMutability":"view"},{"type":"function","name":"NFT_MINTER","inputs":[],"outputs":[{"name":"","type":"bytes32","internalType":"bytes32"}],"stateMutability":"view"},{"type":"function","name":"NFT_PAUSER","inputs":[],"outputs":[{"name":"","type":"bytes32","internalType":"bytes32"}],"stateMutability":"view"}],"bytecode":{"object":"0x61015461003a600b82828239805160001a60731461002d57634e487b7160e01b600052600060045260246000fd5b30600052607381538281f3fe730000000000000000000000000000000000000000301460806040526004361061004b5760003560e01c806365b16c2f14610050578063b7ce17521461006a578063defd6da614610072575b600080fd5b61005861007a565b60405190815260200160405180910390f35b6100586100c1565b6100586100f0565b6040516020016100a8906020808252600a908201526927232a2fa6a4a72a22a960b11b604082015260600190565b6040516020818303038152906040528051906020012081565b6040516020016100a8906020808252600b908201526a27232a2fa6a0a720a3a2a960a91b604082015260600190565b6040516020016100a8906020808252600a908201526927232a2fa820aaa9a2a960b11b60408201526060019056fea264697066735822122026b174033d75b857a36b7c3f216dd9c1e800d8f07c092ef4970afdfca96ac8d564736f6c63430008160033","linkReferences":{}},"methodIdentifiers":{"NFT_MANAGER()":"b7ce1752","NFT_MINTER()":"65b16c2f","NFT_PAUSER()":"defd6da6"},"id":1}